{
  "_format": "hh-sol-artifact-1",
  "contractName": "Raffle",
  "sourceName": "contracts/Raffle.sol",
  "abi": [
    {
      "inputs": [
        {
          "internalType": "address",
          "name": "vrfCoordinatorAddress",
          "type": "address"
        },
        {
          "internalType": "uint256",
          "name": "entranceFee",
          "type": "uint256"
        },
        {
          "internalType": "bytes32",
          "name": "gasLane",
          "type": "bytes32"
        },
        {
          "internalType": "uint64",
          "name": "subscriptionId",
          "type": "uint64"
        },
        {
          "internalType": "uint32",
          "name": "callbackGasLimit",
          "type": "uint32"
        },
        {
          "internalType": "uint256",
          "name": "interval",
          "type": "uint256"
        }
      ],
      "stateMutability": "nonpayable",
      "type": "constructor"
    },
    {
      "inputs": [
        {
          "internalType": "address",
          "name": "have",
          "type": "address"
        },
        {
          "internalType": "address",
          "name": "want",
          "type": "address"
        }
      ],
      "name": "OnlyCoordinatorCanFulfill",
      "type": "error"
    },
    {
      "inputs": [],
      "name": "Raffle__NotEnoughETHEntered",
      "type": "error"
    },
    {
      "inputs": [],
      "name": "Raffle__NotOpen",
      "type": "error"
    },
    {
      "inputs": [],
      "name": "Raffle__TransferFailed",
      "type": "error"
    },
    {
      "inputs": [],
      "name": "Raffle__UpKeepNotNeeded",
      "type": "error"
    },
    {
      "anonymous": false,
      "inputs": [
        {
          "indexed": true,
          "internalType": "address",
          "name": "player",
          "type": "address"
        }
      ],
      "name": "RaffleEnter",
      "type": "event"
    },
    {
      "anonymous": false,
      "inputs": [
        {
          "indexed": true,
          "internalType": "uint256",
          "name": "requestID",
          "type": "uint256"
        }
      ],
      "name": "RequestID",
      "type": "event"
    },
    {
      "anonymous": false,
      "inputs": [
        {
          "indexed": true,
          "internalType": "address",
          "name": "winner",
          "type": "address"
        }
      ],
      "name": "WinnerPicked",
      "type": "event"
    },
    {
      "inputs": [
        {
          "internalType": "bytes",
          "name": "",
          "type": "bytes"
        }
      ],
      "name": "checkUpkeep",
      "outputs": [
        {
          "internalType": "bool",
          "name": "upkeepNeeded",
          "type": "bool"
        },
        {
          "internalType": "bytes",
          "name": "",
          "type": "bytes"
        }
      ],
      "stateMutability": "view",
      "type": "function"
    },
    {
      "inputs": [],
      "name": "enterRaffle",
      "outputs": [],
      "stateMutability": "payable",
      "type": "function"
    },
    {
      "inputs": [],
      "name": "getEntranceFee",
      "outputs": [
        {
          "internalType": "uint256",
          "name": "",
          "type": "uint256"
        }
      ],
      "stateMutability": "view",
      "type": "function"
    },
    {
      "inputs": [],
      "name": "getInterval",
      "outputs": [
        {
          "internalType": "uint256",
          "name": "",
          "type": "uint256"
        }
      ],
      "stateMutability": "view",
      "type": "function"
    },
    {
      "inputs": [],
      "name": "getLastTimeStamp",
      "outputs": [
        {
          "internalType": "uint256",
          "name": "",
          "type": "uint256"
        }
      ],
      "stateMutability": "view",
      "type": "function"
    },
    {
      "inputs": [
        {
          "internalType": "uint256",
          "name": "index",
          "type": "uint256"
        }
      ],
      "name": "getPlayer",
      "outputs": [
        {
          "internalType": "address",
          "name": "",
          "type": "address"
        }
      ],
      "stateMutability": "view",
      "type": "function"
    },
    {
      "inputs": [],
      "name": "getRaffleState",
      "outputs": [
        {
          "internalType": "enum Raffle.RaffleState",
          "name": "",
          "type": "uint8"
        }
      ],
      "stateMutability": "view",
      "type": "function"
    },
    {
      "inputs": [],
      "name": "getRecentWinner",
      "outputs": [
        {
          "internalType": "address",
          "name": "",
          "type": "address"
        }
      ],
      "stateMutability": "view",
      "type": "function"
    },
    {
      "inputs": [
        {
          "internalType": "bytes",
          "name": "",
          "type": "bytes"
        }
      ],
      "name": "performUpkeep",
      "outputs": [],
      "stateMutability": "nonpayable",
      "type": "function"
    },
    {
      "inputs": [
        {
          "internalType": "uint256",
          "name": "requestId",
          "type": "uint256"
        },
        {
          "internalType": "uint256[]",
          "name": "randomWords",
          "type": "uint256[]"
        }
      ],
      "name": "rawFulfillRandomWords",
      "outputs": [],
      "stateMutability": "nonpayable",
      "type": "function"
    }
  ],
  "bytecode": "0x6101606040523480156200001257600080fd5b50604051620016cd380380620016cd833981810160405281019062000038919062000294565b858073ffffffffffffffffffffffffffffffffffffffff1660808173ffffffffffffffffffffffffffffffffffffffff1681525050508460a081815250506000600260006101000a81548160ff021916908360018111156200009f576200009e62000330565b5b02179055508573ffffffffffffffffffffffffffffffffffffffff1660c08173ffffffffffffffffffffffffffffffffffffffff16815250508360e081815250508267ffffffffffffffff166101008167ffffffffffffffff16815250508163ffffffff166101208163ffffffff1681525050426001819055508061014081815250505050505050506200035f565b600080fd5b600073ffffffffffffffffffffffffffffffffffffffff82169050919050565b6000620001608262000133565b9050919050565b620001728162000153565b81146200017e57600080fd5b50565b600081519050620001928162000167565b92915050565b6000819050919050565b620001ad8162000198565b8114620001b957600080fd5b50565b600081519050620001cd81620001a2565b92915050565b6000819050919050565b620001e881620001d3565b8114620001f457600080fd5b50565b6000815190506200020881620001dd565b92915050565b600067ffffffffffffffff82169050919050565b6200022d816200020e565b81146200023957600080fd5b50565b6000815190506200024d8162000222565b92915050565b600063ffffffff82169050919050565b6200026e8162000253565b81146200027a57600080fd5b50565b6000815190506200028e8162000263565b92915050565b60008060008060008060c08789031215620002b457620002b36200012e565b5b6000620002c489828a0162000181565b9650506020620002d789828a01620001bc565b9550506040620002ea89828a01620001f7565b9450506060620002fd89828a016200023c565b93505060806200031089828a016200027d565b92505060a06200032389828a01620001bc565b9150509295509295509295565b7f4e487b7100000000000000000000000000000000000000000000000000000000600052602160045260246000fd5b60805160a05160c05160e0516101005161012051610140516112fe620003cf600039600081816106be015261072c0152600061058a01526000610567015260006105460152600061050a015260008181610248015261034501526000818161028501526102d901526112fe6000f3fe6080604052600436106100915760003560e01c8063473f1ddc11610059578063473f1ddc146101485780636e04ff0d1461017357806391ad27b4146101b1578063c1c244e8146101dc578063e55ae4e81461020757610091565b806309bc33a714610096578063115cbaf5146100c15780631fe543e3146100ec5780632cfcc539146101155780634585e33b1461011f575b600080fd5b3480156100a257600080fd5b506100ab610244565b6040516100b89190610ab6565b60405180910390f35b3480156100cd57600080fd5b506100d661026c565b6040516100e39190610b48565b60405180910390f35b3480156100f857600080fd5b50610113600480360381019061010e9190610cfc565b610283565b005b61011d610343565b005b34801561012b57600080fd5b5061014660048036038101906101419190610db3565b6104b2565b005b34801561015457600080fd5b5061015d610652565b60405161016a9190610e41565b60405180910390f35b34801561017f57600080fd5b5061019a60048036038101906101959190610f11565b61067c565b6040516101a8929190610ffd565b60405180910390f35b3480156101bd57600080fd5b506101c6610728565b6040516101d39190610ab6565b60405180910390f35b3480156101e857600080fd5b506101f1610750565b6040516101fe9190610ab6565b60405180910390f35b34801561021357600080fd5b5061022e6004803603810190610229919061102d565b61075a565b60405161023b9190610e41565b60405180910390f35b60007f0000000000000000000000000000000000000000000000000000000000000000905090565b6000600260009054906101000a900460ff16905090565b7f000000000000000000000000000000000000000000000000000000000000000073ffffffffffffffffffffffffffffffffffffffff163373ffffffffffffffffffffffffffffffffffffffff161461033557337f00000000000000000000000000000000000000000000000000000000000000006040517f1cf993f400000000000000000000000000000000000000000000000000000000815260040161032c92919061105a565b60405180910390fd5b61033f82826107a1565b5050565b7f000000000000000000000000000000000000000000000000000000000000000034101561039d576040517fbd4e069500000000000000000000000000000000000000000000000000000000815260040160405180910390fd5b600060018111156103b1576103b0610ad1565b5b600260009054906101000a900460ff1660018111156103d3576103d2610ad1565b5b1461040a576040517f1425571c00000000000000000000000000000000000000000000000000000000815260040160405180910390fd5b6000339080600181540180825580915050600190039060005260206000200160009091909190916101000a81548173ffffffffffffffffffffffffffffffffffffffff021916908373ffffffffffffffffffffffffffffffffffffffff1602179055503373ffffffffffffffffffffffffffffffffffffffff167f0805e1d667bddb8a95f0f09880cf94f403fb596ce79928d9f29b74203ba284d460405160405180910390a2565b60006104cc6040518060200160405280600081525061067c565b50905080610506576040517faedc535500000000000000000000000000000000000000000000000000000000815260040160405180910390fd5b60007f000000000000000000000000000000000000000000000000000000000000000073ffffffffffffffffffffffffffffffffffffffff16635d3b1d307f00000000000000000000000000000000000000000000000000000000000000007f000000000000000000000000000000000000000000000000000000000000000060037f000000000000000000000000000000000000000000000000000000000000000060026040518663ffffffff1660e01b81526004016105cb9594939291906110fb565b602060405180830381600087803b1580156105e557600080fd5b505af11580156105f9573d6000803e3d6000fd5b505050506040513d601f19601f8201168201806040525081019061061d9190611163565b9050807f8122a65d33d8c7ad842fe4edeb9e83a70a705460949bed1a3d6848e8e280f6d260405160405180910390a250505050565b6000600260019054906101000a900473ffffffffffffffffffffffffffffffffffffffff16905090565b60006060600080600181111561069557610694610ad1565b5b600260009054906101000a900460ff1660018111156106b7576106b6610ad1565b5b14905060007f0000000000000000000000000000000000000000000000000000000000000000600154426106eb91906111bf565b1190506000806000805490501190506000804711905083801561070b5750825b80156107145750815b801561071d5750805b955050505050915091565b60007f0000000000000000000000000000000000000000000000000000000000000000905090565b6000600154905090565b600080828154811061076f5761076e6111f3565b5b9060005260206000200160009054906101000a900473ffffffffffffffffffffffffffffffffffffffff169050919050565b6001600260006101000a81548160ff021916908360018111156107c7576107c6610ad1565b5b021790555060008080549050826000815181106107e7576107e66111f3565b5b60200260200101516107f99190611251565b905060008082815481106108105761080f6111f3565b5b9060005260206000200160009054906101000a900473ffffffffffffffffffffffffffffffffffffffff16905080600260016101000a81548173ffffffffffffffffffffffffffffffffffffffff021916908373ffffffffffffffffffffffffffffffffffffffff160217905550600067ffffffffffffffff81111561089957610898610bb9565b5b6040519080825280602002602001820160405280156108c75781602001602082028036833780820191505090505b50600090805190602001906108dd9291906109f6565b506000600260006101000a81548160ff0219169083600181111561090457610903610ad1565b5b021790555060008173ffffffffffffffffffffffffffffffffffffffff164760405161092f906112b3565b60006040518083038185875af1925050503d806000811461096c576040519150601f19603f3d011682016040523d82523d6000602084013e610971565b606091505b50509050806109ac576040517fa1d04b3900000000000000000000000000000000000000000000000000000000815260040160405180910390fd5b8173ffffffffffffffffffffffffffffffffffffffff167f5b690ec4a06fe979403046eaeea5b3ce38524683c3001f662c8b5a829632f7df60405160405180910390a25050505050565b828054828255906000526020600020908101928215610a6f579160200282015b82811115610a6e5782518260006101000a81548173ffffffffffffffffffffffffffffffffffffffff021916908373ffffffffffffffffffffffffffffffffffffffff16021790555091602001919060010190610a16565b5b509050610a7c9190610a80565b5090565b5b80821115610a99576000816000905550600101610a81565b5090565b6000819050919050565b610ab081610a9d565b82525050565b6000602082019050610acb6000830184610aa7565b92915050565b7f4e487b7100000000000000000000000000000000000000000000000000000000600052602160045260246000fd5b60028110610b1157610b10610ad1565b5b50565b6000819050610b2282610b00565b919050565b6000610b3282610b14565b9050919050565b610b4281610b27565b82525050565b6000602082019050610b5d6000830184610b39565b92915050565b6000604051905090565b600080fd5b600080fd5b610b8081610a9d565b8114610b8b57600080fd5b50565b600081359050610b9d81610b77565b92915050565b600080fd5b6000601f19601f8301169050919050565b7f4e487b7100000000000000000000000000000000000000000000000000000000600052604160045260246000fd5b610bf182610ba8565b810181811067ffffffffffffffff82111715610c1057610c0f610bb9565b5b80604052505050565b6000610c23610b63565b9050610c2f8282610be8565b919050565b600067ffffffffffffffff821115610c4f57610c4e610bb9565b5b602082029050602081019050919050565b600080fd5b6000610c78610c7384610c34565b610c19565b90508083825260208201905060208402830185811115610c9b57610c9a610c60565b5b835b81811015610cc45780610cb08882610b8e565b845260208401935050602081019050610c9d565b5050509392505050565b600082601f830112610ce357610ce2610ba3565b5b8135610cf3848260208601610c65565b91505092915050565b60008060408385031215610d1357610d12610b6d565b5b6000610d2185828601610b8e565b925050602083013567ffffffffffffffff811115610d4257610d41610b72565b5b610d4e85828601610cce565b9150509250929050565b600080fd5b60008083601f840112610d7357610d72610ba3565b5b8235905067ffffffffffffffff811115610d9057610d8f610d58565b5b602083019150836001820283011115610dac57610dab610c60565b5b9250929050565b60008060208385031215610dca57610dc9610b6d565b5b600083013567ffffffffffffffff811115610de857610de7610b72565b5b610df485828601610d5d565b92509250509250929050565b600073ffffffffffffffffffffffffffffffffffffffff82169050919050565b6000610e2b82610e00565b9050919050565b610e3b81610e20565b82525050565b6000602082019050610e566000830184610e32565b92915050565b600080fd5b600067ffffffffffffffff821115610e7c57610e7b610bb9565b5b610e8582610ba8565b9050602081019050919050565b82818337600083830152505050565b6000610eb4610eaf84610e61565b610c19565b905082815260208101848484011115610ed057610ecf610e5c565b5b610edb848285610e92565b509392505050565b600082601f830112610ef857610ef7610ba3565b5b8135610f08848260208601610ea1565b91505092915050565b600060208284031215610f2757610f26610b6d565b5b600082013567ffffffffffffffff811115610f4557610f44610b72565b5b610f5184828501610ee3565b91505092915050565b60008115159050919050565b610f6f81610f5a565b82525050565b600081519050919050565b600082825260208201905092915050565b60005b83811015610faf578082015181840152602081019050610f94565b83811115610fbe576000848401525b50505050565b6000610fcf82610f75565b610fd98185610f80565b9350610fe9818560208601610f91565b610ff281610ba8565b840191505092915050565b60006040820190506110126000830185610f66565b81810360208301526110248184610fc4565b90509392505050565b60006020828403121561104357611042610b6d565b5b600061105184828501610b8e565b91505092915050565b600060408201905061106f6000830185610e32565b61107c6020830184610e32565b9392505050565b6000819050919050565b61109681611083565b82525050565b600067ffffffffffffffff82169050919050565b6110b98161109c565b82525050565b600061ffff82169050919050565b6110d6816110bf565b82525050565b600063ffffffff82169050919050565b6110f5816110dc565b82525050565b600060a082019050611110600083018861108d565b61111d60208301876110b0565b61112a60408301866110cd565b61113760608301856110ec565b61114460808301846110ec565b9695505050505050565b60008151905061115d81610b77565b92915050565b60006020828403121561117957611178610b6d565b5b60006111878482850161114e565b91505092915050565b7f4e487b7100000000000000000000000000000000000000000000000000000000600052601160045260246000fd5b60006111ca82610a9d565b91506111d583610a9d565b9250828210156111e8576111e7611190565b5b828203905092915050565b7f4e487b7100000000000000000000000000000000000000000000000000000000600052603260045260246000fd5b7f4e487b7100000000000000000000000000000000000000000000000000000000600052601260045260246000fd5b600061125c82610a9d565b915061126783610a9d565b92508261127757611276611222565b5b828206905092915050565b600081905092915050565b50565b600061129d600083611282565b91506112a88261128d565b600082019050919050565b60006112be82611290565b915081905091905056fea264697066735822122000c405210f578b68109b4d79efc89618b70c8dab977d646e6d413db705e37b3d64736f6c63430008090033",
  "linkReferences": {},
  "deployedLinkReferences": {}
}